{"abi":[{"type":"constructor","inputs":[],"stateMutability":"nonpayable"},{"type":"function","name":"deployCanvas","inputs":[{"name":"_name","type":"string","internalType":"string"},{"name":"_height","type":"uint256","internalType":"uint256"},{"name":"_width","type":"uint256","internalType":"uint256"},{"name":"_mode","type":"uint256","internalType":"uint256"},{"name":"_destination","type":"address","internalType":"address"}],"outputs":[{"name":"","type":"address","internalType":"address"}],"stateMutability":"nonpayable"},{"type":"event","name":"CanvasDeployed","inputs":[{"name":"deployer","type":"address","indexed":true,"internalType":"address"},{"name":"deployedCanvasContract","type":"address","indexed":false,"internalType":"address"},{"name":"name","type":"string","indexed":false,"internalType":"string"},{"name":"height","type":"uint256","indexed":false,"internalType":"uint256"},{"name":"width","type":"uint256","indexed":false,"internalType":"uint256"},{"name":"mode","type":"uint256","indexed":false,"internalType":"uint256"},{"name":"chainId","type":"uint256","indexed":false,"internalType":"uint256"},{"name":"destination","type":"address","indexed":false,"internalType":"address"},{"name":"creationTime","type":"uint256","indexed":false,"internalType":"uint256"}],"anonymous":false}],"bytecode":{"object":"0x6080604052348015600f57600080fd5b506106ab8061001f6000396000f3fe608060405234801561001057600080fd5b506004361061002b5760003560e01c8063ef72ccda14610030575b600080fd5b61004361003e366004610197565b61005f565b6040516001600160a01b03909116815260200160405180910390f35b6000808260405161006f90610158565b6001600160a01b039091168152602001604051809103906000f08015801561009b573d6000803e3d6000fd5b509050336001600160a01b03167f4a65efa16955426b9849321c498b06002cf59e4e1652fd8dbb520f6f5d767a958289898989468a896001600160a01b031663d8270dce6040518163ffffffff1660e01b8152600401602060405180830381865afa15801561010e573d6000803e3d6000fd5b505050506040513d601f19601f820116820180604052508101906101329190610276565b60405161014698979695949392919061028f565b60405180910390a29695505050505050565b6103438061033383390190565b634e487b7160e01b600052604160045260246000fd5b80356001600160a01b038116811461019257600080fd5b919050565b600080600080600060a086880312156101af57600080fd5b853567ffffffffffffffff808211156101c757600080fd5b818801915088601f8301126101db57600080fd5b8135818111156101ed576101ed610165565b604051601f8201601f19908116603f0116810190838211818310171561021557610215610165565b816040528281528b602084870101111561022e57600080fd5b82602086016020830137600060208483010152809950505050505060208601359350604086013592506060860135915061026a6080870161017b565b90509295509295909350565b60006020828403121561028857600080fd5b5051919050565b6001600160a01b0389168152610100602080830182905289519183018290526000918291905b808310156102d4578b83018201518584016101200152918101916102b5565b6101209250600083828701015282601f19601f83011686010193505050508760408301528660608301528560808301528460a083015261031f60c08301856001600160a01b03169052565b8260e0830152999850505050505050505056fe6080604052348015600f57600080fd5b50604051610343380380610343833981016040819052602c916054565b600080546001600160a01b0319166001600160a01b0392909216919091179055426001556082565b600060208284031215606557600080fd5b81516001600160a01b0381168114607b57600080fd5b9392505050565b6102b2806100916000396000f3fe6080604052600436106100385760003560e01c80633c68eb8114610082578063b269681d14610099578063d8270dce146100d657600080fd5b3661007d5760408051348152336020820152308183015290517f2af5eda82ad1f25904227567dd45ffa117b5d8708564c428e3e59d5fb7c4be889181900360600190a1005b600080fd5b34801561008e57600080fd5b506100976100fa565b005b3480156100a557600080fd5b506000546100b9906001600160a01b031681565b6040516001600160a01b0390911681526020015b60405180910390f35b3480156100e257600080fd5b506100ec60015481565b6040519081526020016100cd565b60015461010990615460610255565b4210156101835760405162461bcd60e51b815260206004820152603d60248201527f46756e64732063616e206f6e6c79206265207472616e7366657272656420362060448201527f686f75727320616674657220636f6e7472616374206372656174696f6e00000060648201526084015b60405180910390fd5b6000546001600160a01b0316331461019a57600080fd5b47806101df5760405162461bcd60e51b8152602060048201526014602482015273273790333ab73239903a37903a3930b739b332b960611b604482015260640161017a565b600080546040516001600160a01b039091169183156108fc02918491818181858888f19350505050158015610218573d6000803e3d6000fd5b5060408051308152602081018390527f8c9a4f13b67cb64d7c6aa1ae0c9bf07694af521a28b93e7060020810ab4bc59f910160405180910390a150565b8082018082111561027657634e487b7160e01b600052601160045260246000fd5b9291505056fea2646970667358221220a185ed45324581a254709d40a3d76a341b4497e6f6ec8151cd470f62d8b5914764736f6c63430008190033a26469706673582212208a78e8360b784f2d000b91041ed76f001f15e86ff8e68cd0dc2d68c3b53d98d264736f6c63430008190033","linkReferences":{}},"methodIdentifiers":{"deployCanvas(string,uint256,uint256,uint256,address)":"ef72ccda"},"id":26}