{"abi":[{"type":"constructor","inputs":[],"stateMutability":"nonpayable"},{"type":"function","name":"deployCanvas","inputs":[{"name":"_name","type":"string","internalType":"string"},{"name":"_height","type":"uint256","internalType":"uint256"},{"name":"_width","type":"uint256","internalType":"uint256"},{"name":"_mode","type":"uint256","internalType":"uint256"},{"name":"_activeDuration","type":"uint256","internalType":"uint256"}],"outputs":[{"name":"","type":"address","internalType":"address"}],"stateMutability":"nonpayable"},{"type":"function","name":"walletAddress","inputs":[],"outputs":[{"name":"","type":"address","internalType":"address"}],"stateMutability":"view"},{"type":"event","name":"CanvasDeployed","inputs":[{"name":"deployer","type":"address","indexed":true,"internalType":"address"},{"name":"deployedCanvasContract","type":"address","indexed":false,"internalType":"address"},{"name":"name","type":"string","indexed":false,"internalType":"string"},{"name":"height","type":"uint256","indexed":false,"internalType":"uint256"},{"name":"width","type":"uint256","indexed":false,"internalType":"uint256"},{"name":"mode","type":"uint256","indexed":false,"internalType":"uint256"},{"name":"chainId","type":"uint256","indexed":false,"internalType":"uint256"},{"name":"activeDuration","type":"uint256","indexed":false,"internalType":"uint256"},{"name":"creationTime","type":"uint256","indexed":false,"internalType":"uint256"}],"anonymous":false}],"bytecode":{"object":"0x6080604052348015600f57600080fd5b50600080546001600160a01b03191633179055610676806100316000396000f3fe608060405234801561001057600080fd5b50600436106100365760003560e01c80636ad5b3ea1461003b57806393687d7f1461006a575b600080fd5b60005461004e906001600160a01b031681565b6040516001600160a01b03909116815260200160405180910390f35b61004e6100783660046101a8565b60008054604051829184916001600160a01b039091169061009890610185565b9182526001600160a01b03166020820152604001604051809103906000f0801580156100c8573d6000803e3d6000fd5b509050336001600160a01b03167ff818bdef9101656fb0ca91dae11f1f926746b20508439ae8b5031bc829b2ccdb8289898989468a896001600160a01b031663d8270dce6040518163ffffffff1660e01b8152600401602060405180830381865afa15801561013b573d6000803e3d6000fd5b505050506040513d601f19601f8201168201806040525081019061015f9190610276565b60405161017398979695949392919061028f565b60405180910390a29695505050505050565b6103208061032183390190565b634e487b7160e01b600052604160045260246000fd5b600080600080600060a086880312156101c057600080fd5b853567ffffffffffffffff808211156101d857600080fd5b818801915088601f8301126101ec57600080fd5b8135818111156101fe576101fe610192565b604051601f8201601f19908116603f0116810190838211818310171561022657610226610192565b816040528281528b602084870101111561023f57600080fd5b82602086016020830137600060209382018401529b918a01359a505060408901359860608101359850608001359650945050505050565b60006020828403121561028857600080fd5b5051919050565b6001600160a01b0389168152610100602080830182905289519183018290526000918291905b808310156102d4578b83018201518584016101200152918101916102b5565b6000610120828701810191909152604086019b909b526060850199909952505050608081019490945260a084019290925260c083015260e0820152601f909101601f191601019291505056fe6080604052348015600f57600080fd5b50604051610320380380610320833981016040819052602c916061565b600191825542600055600280546001600160a01b03909216610100026001600160a81b0319909216919091179091179055609c565b60008060408385031215607357600080fd5b825160208401519092506001600160a01b0381168114609157600080fd5b809150509250929050565b610275806100ab6000396000f3fe6080604052600436106100435760003560e01c806322f3e2d4146101725780633d05f009146101a15780636ad5b3ea146101c5578063d8270dce1461020257600080fd5b3661016d5760025460ff166100915760405162461bcd60e51b815260206004820152601060248201526f10d85b9d985cc81a5cc81b1bd8dad95960821b604482015260640160405180910390fd5b60408051348152336020820152308183015290517f2af5eda82ad1f25904227567dd45ffa117b5d8708564c428e3e59d5fb7c4be889181900360600190a16001546000546100df9190610218565b421061016b576002805460ff19169055478015610136576002546040516101009091046001600160a01b0316906108fc8315029083906000818181858888f19350505050158015610134573d6000803e3d6000fd5b505b6040513081527f7b76ee835cdac7ed8a766ec0037751d1ffbedfd590714454109fa9fc3b9c3a419060200160405180910390a1505b005b600080fd5b34801561017e57600080fd5b5060025461018c9060ff1681565b60405190151581526020015b60405180910390f35b3480156101ad57600080fd5b506101b760015481565b604051908152602001610198565b3480156101d157600080fd5b506002546101ea9061010090046001600160a01b031681565b6040516001600160a01b039091168152602001610198565b34801561020e57600080fd5b506101b760005481565b8082018082111561023957634e487b7160e01b600052601160045260246000fd5b9291505056fea26469706673582212201fee5e2bffb62f0a7f8a9d322009d9c8ca16db051261bc6ae0bc91b8cc54462564736f6c63430008190033a26469706673582212203e1ddf75ec7837135e23ec541c53ec9d1ccaaa3c5acf54c5b28127ca2142676764736f6c63430008190033","linkReferences":{}},"methodIdentifiers":{"deployCanvas(string,uint256,uint256,uint256,uint256)":"93687d7f","walletAddress()":"6ad5b3ea"},"id":26}