{
  "abi": [
    {
      "type": "constructor",
      "inputs": [
        {
          "name": "_activeDuration",
          "type": "uint256",
          "internalType": "uint256"
        },
        {
          "name": "_walletAddress",
          "type": "address",
          "internalType": "address"
        }
      ],
      "stateMutability": "nonpayable"
    },
    {
      "type": "receive",
      "stateMutability": "payable"
    },
    {
      "type": "function",
      "name": "activeDuration",
      "inputs": [],
      "outputs": [
        {
          "name": "",
          "type": "uint256",
          "internalType": "uint256"
        }
      ],
      "stateMutability": "view"
    },
    {
      "type": "function",
      "name": "creationTime",
      "inputs": [],
      "outputs": [
        {
          "name": "",
          "type": "uint256",
          "internalType": "uint256"
        }
      ],
      "stateMutability": "view"
    },
    {
      "type": "function",
      "name": "isActive",
      "inputs": [],
      "outputs": [
        {
          "name": "",
          "type": "bool",
          "internalType": "bool"
        }
      ],
      "stateMutability": "view"
    },
    {
      "type": "function",
      "name": "walletAddress",
      "inputs": [],
      "outputs": [
        {
          "name": "",
          "type": "address",
          "internalType": "address"
        }
      ],
      "stateMutability": "view"
    },
    {
      "type": "event",
      "name": "CanvasLocked",
      "inputs": [
        {
          "name": "contractAddress",
          "type": "address",
          "indexed": false,
          "internalType": "address"
        }
      ],
      "anonymous": false
    },
    {
      "type": "event",
      "name": "PixelRegistered",
      "inputs": [
        {
          "name": "amount",
          "type": "uint256",
          "indexed": false,
          "internalType": "uint256"
        },
        {
          "name": "sender",
          "type": "address",
          "indexed": false,
          "internalType": "address"
        },
        {
          "name": "contractAddress",
          "type": "address",
          "indexed": false,
          "internalType": "address"
        }
      ],
      "anonymous": false
    }
  ],
  "bytecode": {
    "object": "0x6080604052348015600f57600080fd5b50604051610320380380610320833981016040819052602c916061565b600191825542600055600280546001600160a01b03909216610100026001600160a81b0319909216919091179091179055609c565b60008060408385031215607357600080fd5b825160208401519092506001600160a01b0381168114609157600080fd5b809150509250929050565b610275806100ab6000396000f3fe6080604052600436106100435760003560e01c806322f3e2d4146101725780633d05f009146101a15780636ad5b3ea146101c5578063d8270dce1461020257600080fd5b3661016d5760025460ff166100915760405162461bcd60e51b815260206004820152601060248201526f10d85b9d985cc81a5cc81b1bd8dad95960821b604482015260640160405180910390fd5b60408051348152336020820152308183015290517f2af5eda82ad1f25904227567dd45ffa117b5d8708564c428e3e59d5fb7c4be889181900360600190a16001546000546100df9190610218565b421061016b576002805460ff19169055478015610136576002546040516101009091046001600160a01b0316906108fc8315029083906000818181858888f19350505050158015610134573d6000803e3d6000fd5b505b6040513081527f7b76ee835cdac7ed8a766ec0037751d1ffbedfd590714454109fa9fc3b9c3a419060200160405180910390a1505b005b600080fd5b34801561017e57600080fd5b5060025461018c9060ff1681565b60405190151581526020015b60405180910390f35b3480156101ad57600080fd5b506101b760015481565b604051908152602001610198565b3480156101d157600080fd5b506002546101ea9061010090046001600160a01b031681565b6040516001600160a01b039091168152602001610198565b34801561020e57600080fd5b506101b760005481565b8082018082111561023957634e487b7160e01b600052601160045260246000fd5b9291505056fea26469706673582212201fee5e2bffb62f0a7f8a9d322009d9c8ca16db051261bc6ae0bc91b8cc54462564736f6c63430008190033",
    "linkReferences": {}
  },
  "methodIdentifiers": {
    "activeDuration()": "3d05f009",
    "creationTime()": "d8270dce",
    "isActive()": "22f3e2d4",
    "walletAddress()": "6ad5b3ea"
  },
  "id": 0
}