{"abi":[{"type":"constructor","inputs":[{"name":"_destination","type":"address","internalType":"address"}],"stateMutability":"nonpayable"},{"type":"receive","stateMutability":"payable"},{"type":"function","name":"creationTime","inputs":[],"outputs":[{"name":"","type":"uint256","internalType":"uint256"}],"stateMutability":"view"},{"type":"function","name":"destination","inputs":[],"outputs":[{"name":"","type":"address","internalType":"address"}],"stateMutability":"view"},{"type":"function","name":"transferFunds","inputs":[],"outputs":[],"stateMutability":"nonpayable"},{"type":"event","name":"FundsTransferred","inputs":[{"name":"contractAddress","type":"address","indexed":false,"internalType":"address"},{"name":"amount","type":"uint256","indexed":false,"internalType":"uint256"}],"anonymous":false},{"type":"event","name":"PixelRegistered","inputs":[{"name":"amount","type":"uint256","indexed":false,"internalType":"uint256"},{"name":"sender","type":"address","indexed":false,"internalType":"address"},{"name":"contractAddress","type":"address","indexed":false,"internalType":"address"}],"anonymous":false}],"bytecode":{"object":"0x6080604052348015600f57600080fd5b50604051610343380380610343833981016040819052602c916054565b600080546001600160a01b0319166001600160a01b0392909216919091179055426001556082565b600060208284031215606557600080fd5b81516001600160a01b0381168114607b57600080fd5b9392505050565b6102b2806100916000396000f3fe6080604052600436106100385760003560e01c80633c68eb8114610082578063b269681d14610099578063d8270dce146100d657600080fd5b3661007d5760408051348152336020820152308183015290517f2af5eda82ad1f25904227567dd45ffa117b5d8708564c428e3e59d5fb7c4be889181900360600190a1005b600080fd5b34801561008e57600080fd5b506100976100fa565b005b3480156100a557600080fd5b506000546100b9906001600160a01b031681565b6040516001600160a01b0390911681526020015b60405180910390f35b3480156100e257600080fd5b506100ec60015481565b6040519081526020016100cd565b60015461010990615460610255565b4210156101835760405162461bcd60e51b815260206004820152603d60248201527f46756e64732063616e206f6e6c79206265207472616e7366657272656420362060448201527f686f75727320616674657220636f6e7472616374206372656174696f6e00000060648201526084015b60405180910390fd5b6000546001600160a01b0316331461019a57600080fd5b47806101df5760405162461bcd60e51b8152602060048201526014602482015273273790333ab73239903a37903a3930b739b332b960611b604482015260640161017a565b600080546040516001600160a01b039091169183156108fc02918491818181858888f19350505050158015610218573d6000803e3d6000fd5b5060408051308152602081018390527f8c9a4f13b67cb64d7c6aa1ae0c9bf07694af521a28b93e7060020810ab4bc59f910160405180910390a150565b8082018082111561027657634e487b7160e01b600052601160045260246000fd5b9291505056fea2646970667358221220a185ed45324581a254709d40a3d76a341b4497e6f6ec8151cd470f62d8b5914764736f6c63430008190033","linkReferences":{}},"methodIdentifiers":{"creationTime()":"d8270dce","destination()":"b269681d","transferFunds()":"3c68eb81"},"id":25}